{
  "address": "0x5FbDB2315678afecb367f032d93F642f64180aa3",
  "abi": [
    {
      "inputs": [
        {
          "internalType": "uint256",
          "name": "minimumBid",
          "type": "uint256"
        },
        {
          "internalType": "uint256",
          "name": "maximumNumberOfBidders",
          "type": "uint256"
        },
        {
          "internalType": "uint256",
          "name": "auctioneerCollateralAmount",
          "type": "uint256"
        },
        {
          "internalType": "uint256",
          "name": "interval",
          "type": "uint256"
        }
      ],
      "stateMutability": "payable",
      "type": "constructor"
    },
    {
      "inputs": [],
      "name": "Auction__AlreadyEnteredAuction",
      "type": "error"
    },
    {
      "inputs": [],
      "name": "Auction__AuctionIsClosed",
      "type": "error"
    },
    {
      "inputs": [],
      "name": "Auction__AuctionIsStillOpen",
      "type": "error"
    },
    {
      "inputs": [
        {
          "internalType": "uint256",
          "name": "amountSent",
          "type": "uint256"
        },
        {
          "internalType": "uint256",
          "name": "minimumBid",
          "type": "uint256"
        },
        {
          "internalType": "uint256",
          "name": "collateralAmount",
          "type": "uint256"
        }
      ],
      "name": "Auction__BidBelowMinimumBid",
      "type": "error"
    },
    {
      "inputs": [
        {
          "internalType": "uint256",
          "name": "amountSent",
          "type": "uint256"
        },
        {
          "internalType": "uint256",
          "name": "collateralAmount",
          "type": "uint256"
        }
      ],
      "name": "Auction__DidntCoverCollateral",
      "type": "error"
    },
    {
      "inputs": [],
      "name": "Auction__DidntEnterAuction",
      "type": "error"
    },
    {
      "inputs": [],
      "name": "Auction__HighestBidderCantWithdraw",
      "type": "error"
    },
    {
      "inputs": [
        {
          "internalType": "uint256",
          "name": "interval",
          "type": "uint256"
        },
        {
          "internalType": "uint256",
          "name": "maxInterval",
          "type": "uint256"
        }
      ],
      "name": "Auction__IntervalAboveMaximum",
      "type": "error"
    },
    {
      "inputs": [
        {
          "internalType": "uint256",
          "name": "interval",
          "type": "uint256"
        },
        {
          "internalType": "uint256",
          "name": "threshold",
          "type": "uint256"
        }
      ],
      "name": "Auction__IntervalBelowThreshold",
      "type": "error"
    },
    {
      "inputs": [
        {
          "internalType": "uint256",
          "name": "maximumNumberOfBidders",
          "type": "uint256"
        }
      ],
      "name": "Auction__MaximumNumbersOfBiddersReached",
      "type": "error"
    },
    {
      "inputs": [],
      "name": "Auction__OnlySellerCanCallFunction",
      "type": "error"
    },
    {
      "inputs": [],
      "name": "Auction__RedundantZeroBidIncrease",
      "type": "error"
    },
    {
      "inputs": [],
      "name": "Auction__RoutingReservedForHighestBidder",
      "type": "error"
    },
    {
      "inputs": [],
      "name": "Auction__SellerCantCallFunction",
      "type": "error"
    },
    {
      "inputs": [
        {
          "internalType": "uint256",
          "name": "timeUntilThreshold",
          "type": "uint256"
        }
      ],
      "name": "Auction__ThresholdNotReached",
      "type": "error"
    },
    {
      "inputs": [],
      "name": "Auction__TransactionFailed",
      "type": "error"
    },
    {
      "inputs": [],
      "name": "Auction__UpkeepNotNeeded",
      "type": "error"
    },
    {
      "inputs": [
        {
          "internalType": "uint256",
          "name": "amountSent",
          "type": "uint256"
        },
        {
          "internalType": "uint256",
          "name": "collateralAmount",
          "type": "uint256"
        }
      ],
      "name": "Auction__ZeroStartingBid",
      "type": "error"
    },
    {
      "inputs": [],
      "name": "burnAllStoredValue",
      "outputs": [],
      "stateMutability": "nonpayable",
      "type": "function"
    },
    {
      "inputs": [],
      "name": "canICloseAuction",
      "outputs": [
        {
          "internalType": "bool",
          "name": "",
          "type": "bool"
        }
      ],
      "stateMutability": "view",
      "type": "function"
    },
    {
      "inputs": [
        {
          "internalType": "bytes",
          "name": "",
          "type": "bytes"
        }
      ],
      "name": "checkUpkeep",
      "outputs": [
        {
          "internalType": "bool",
          "name": "upkeepNeeded",
          "type": "bool"
        },
        {
          "internalType": "bytes",
          "name": "",
          "type": "bytes"
        }
      ],
      "stateMutability": "view",
      "type": "function"
    },
    {
      "inputs": [],
      "name": "closeAuction",
      "outputs": [],
      "stateMutability": "nonpayable",
      "type": "function"
    },
    {
      "inputs": [],
      "name": "doIHaveTheHighestBid",
      "outputs": [
        {
          "internalType": "bool",
          "name": "",
          "type": "bool"
        }
      ],
      "stateMutability": "view",
      "type": "function"
    },
    {
      "inputs": [],
      "name": "enterAuction",
      "outputs": [],
      "stateMutability": "payable",
      "type": "function"
    },
    {
      "inputs": [],
      "name": "getAuctionWinner",
      "outputs": [
        {
          "internalType": "address",
          "name": "",
          "type": "address"
        }
      ],
      "stateMutability": "view",
      "type": "function"
    },
    {
      "inputs": [],
      "name": "getAuctioneerCollateralAmount",
      "outputs": [
        {
          "internalType": "uint256",
          "name": "",
          "type": "uint256"
        }
      ],
      "stateMutability": "view",
      "type": "function"
    },
    {
      "inputs": [],
      "name": "getCloseTimestamp",
      "outputs": [
        {
          "internalType": "uint256",
          "name": "",
          "type": "uint256"
        }
      ],
      "stateMutability": "view",
      "type": "function"
    },
    {
      "inputs": [],
      "name": "getClosedInterval",
      "outputs": [
        {
          "internalType": "uint256",
          "name": "",
          "type": "uint256"
        }
      ],
      "stateMutability": "pure",
      "type": "function"
    },
    {
      "inputs": [],
      "name": "getContractBalance",
      "outputs": [
        {
          "internalType": "uint256",
          "name": "",
          "type": "uint256"
        }
      ],
      "stateMutability": "view",
      "type": "function"
    },
    {
      "inputs": [],
      "name": "getCurrentHighestBid",
      "outputs": [
        {
          "internalType": "uint256",
          "name": "",
          "type": "uint256"
        }
      ],
      "stateMutability": "view",
      "type": "function"
    },
    {
      "inputs": [],
      "name": "getInterval",
      "outputs": [
        {
          "internalType": "uint256",
          "name": "",
          "type": "uint256"
        }
      ],
      "stateMutability": "view",
      "type": "function"
    },
    {
      "inputs": [],
      "name": "getMaximumNumberOfBidders",
      "outputs": [
        {
          "internalType": "uint256",
          "name": "",
          "type": "uint256"
        }
      ],
      "stateMutability": "view",
      "type": "function"
    },
    {
      "inputs": [],
      "name": "getMinimumBid",
      "outputs": [
        {
          "internalType": "uint256",
          "name": "",
          "type": "uint256"
        }
      ],
      "stateMutability": "view",
      "type": "function"
    },
    {
      "inputs": [],
      "name": "getMyCurrentBid",
      "outputs": [
        {
          "internalType": "uint256",
          "name": "",
          "type": "uint256"
        }
      ],
      "stateMutability": "view",
      "type": "function"
    },
    {
      "inputs": [],
      "name": "getNumberOfBidders",
      "outputs": [
        {
          "internalType": "uint256",
          "name": "",
          "type": "uint256"
        }
      ],
      "stateMutability": "view",
      "type": "function"
    },
    {
      "inputs": [],
      "name": "getOpenThreshold",
      "outputs": [
        {
          "internalType": "uint256",
          "name": "",
          "type": "uint256"
        }
      ],
      "stateMutability": "pure",
      "type": "function"
    },
    {
      "inputs": [],
      "name": "getSellerAddress",
      "outputs": [
        {
          "internalType": "address",
          "name": "",
          "type": "address"
        }
      ],
      "stateMutability": "view",
      "type": "function"
    },
    {
      "inputs": [],
      "name": "getSellerCollateralAmount",
      "outputs": [
        {
          "internalType": "uint256",
          "name": "",
          "type": "uint256"
        }
      ],
      "stateMutability": "view",
      "type": "function"
    },
    {
      "inputs": [],
      "name": "getStartTimestamp",
      "outputs": [
        {
          "internalType": "uint256",
          "name": "",
          "type": "uint256"
        }
      ],
      "stateMutability": "view",
      "type": "function"
    },
    {
      "inputs": [],
      "name": "getTimePassedSinceAuctionClosed",
      "outputs": [
        {
          "internalType": "uint256",
          "name": "",
          "type": "uint256"
        }
      ],
      "stateMutability": "view",
      "type": "function"
    },
    {
      "inputs": [],
      "name": "getTimePassedSinceStart",
      "outputs": [
        {
          "internalType": "uint256",
          "name": "",
          "type": "uint256"
        }
      ],
      "stateMutability": "view",
      "type": "function"
    },
    {
      "inputs": [],
      "name": "getTimeUntilClosing",
      "outputs": [
        {
          "internalType": "uint256",
          "name": "",
          "type": "uint256"
        }
      ],
      "stateMutability": "view",
      "type": "function"
    },
    {
      "inputs": [],
      "name": "getTimeUntilDestroy",
      "outputs": [
        {
          "internalType": "uint256",
          "name": "",
          "type": "uint256"
        }
      ],
      "stateMutability": "view",
      "type": "function"
    },
    {
      "inputs": [],
      "name": "getTimeUntilThreshold",
      "outputs": [
        {
          "internalType": "uint256",
          "name": "",
          "type": "uint256"
        }
      ],
      "stateMutability": "view",
      "type": "function"
    },
    {
      "inputs": [],
      "name": "increaseBid",
      "outputs": [],
      "stateMutability": "payable",
      "type": "function"
    },
    {
      "inputs": [],
      "name": "isOpen",
      "outputs": [
        {
          "internalType": "bool",
          "name": "",
          "type": "bool"
        }
      ],
      "stateMutability": "view",
      "type": "function"
    },
    {
      "inputs": [],
      "name": "leaveAuction",
      "outputs": [],
      "stateMutability": "nonpayable",
      "type": "function"
    },
    {
      "inputs": [
        {
          "internalType": "bytes",
          "name": "",
          "type": "bytes"
        }
      ],
      "name": "performUpkeep",
      "outputs": [],
      "stateMutability": "nonpayable",
      "type": "function"
    },
    {
      "inputs": [],
      "name": "routeHighestBid",
      "outputs": [],
      "stateMutability": "nonpayable",
      "type": "function"
    },
    {
      "inputs": [],
      "name": "s_isOpen",
      "outputs": [
        {
          "internalType": "bool",
          "name": "",
          "type": "bool"
        }
      ],
      "stateMutability": "view",
      "type": "function"
    }
  ],
  "transactionHash": "0x7a713321ef7081ce2f3d140df4b2eeac4a79077e529e31d044bc10b4809f7cde",
  "args": [
    "10000000000000000",
    5,
    "100000000000000000",
    604800
  ],
  "numDeployments": 1,
  "solcInputHash": "a0056fe05d22880a51a10603d1bef9c8",
  "bytecode": "0x610160604052604051620028e8380380620028e883398181016040528101906200002a919062000174565b600081101562000076578060006040517f65f4ca100000000000000000000000000000000000000000000000000000000081526004016200006d929190620001f7565b60405180910390fd5b62093a80811115620000c6578062093a806040517f15b90a2e000000000000000000000000000000000000000000000000000000008152600401620000bd929190620001f7565b60405180910390fd5b8360a081815250503373ffffffffffffffffffffffffffffffffffffffff1660808173ffffffffffffffffffffffffffffffffffffffff1660601b815250508260c081815250508160e081815250503461010081815250508061012081815250504261014081815250506001600660006101000a81548160ff0219169083151502179055506000600481905550505050506200024d565b6000815190506200016e8162000233565b92915050565b600080600080608085870312156200019157620001906200022e565b5b6000620001a1878288016200015d565b9450506020620001b4878288016200015d565b9350506040620001c7878288016200015d565b9250506060620001da878288016200015d565b91505092959194509250565b620001f18162000224565b82525050565b60006040820190506200020e6000830185620001e6565b6200021d6020830184620001e6565b9392505050565b6000819050919050565b600080fd5b6200023e8162000224565b81146200024a57600080fd5b50565b60805160601c60a05160c05160e05161010051610120516101405161258762000361600039600081816106cb015261075a0152600081816110ff0152818161195101526119c701526000818161089101528181610bc901526110c001526000818161098101528181610e5d015281816114fc0152818161152501528181611585015281816115bd01528181611665015281816118020152611d280152600081816114750152818161149f0152611af401526000818161161b015281816116440152611b2701526000818161085a01528181610a6a01528181610b920152818161101101528181611330015281816117da0152818161186f01528181611a5d01528181611de30152611eb901526125876000f3fe6080604052600436106101e35760003560e01c80638576912111610102578063bbdd1a1d11610095578063e86e12c111610064578063e86e12c11461062f578063e91190e814610646578063e94c05f514610671578063ffd3fcde1461069c576101e3565b8063bbdd1a1d14610583578063c5b63600146105ae578063cae227a8146105d9578063e2fbf84114610604576101e3565b8063923a54c8116100d1578063923a54c8146104d7578063ab868b0314610502578063b081eb721461052d578063bb8845d114610558576101e3565b8063857691211461043f578063867610a11461046a5780638aa0e9511461048157806391ad27b4146104ac576101e3565b806347535d7b1161017a5780636f9fb98a116101495780636f9fb98a146103d55780637204d5e31461040057806374f7cd4e1461040a57806384b09e8614610414576101e3565b806347535d7b146103165780634c583d8a1461034157806352fb5a7a1461036c5780636e04ff0d14610397576101e3565b8063271649ab116101b6578063271649ab146102945780632880cfd7146102ab578063378252f2146102d65780634585e33b146102ed576101e3565b80631038dfd2146101e857806314203aad146102135780631f89f25e1461023e57806320d6c04014610269575b600080fd5b3480156101f457600080fd5b506101fd6106c7565b60405161020a919061220c565b60405180910390f35b34801561021f57600080fd5b506102286106fa565b604051610235919061220c565b60405180910390f35b34801561024a57600080fd5b50610253610756565b604051610260919061220c565b60405180910390f35b34801561027557600080fd5b5061027e61077e565b60405161028b919061220c565b60405180910390f35b3480156102a057600080fd5b506102a9610788565b005b3480156102b757600080fd5b506102c0610a36565b6040516102cd919061220c565b60405180910390f35b3480156102e257600080fd5b506102eb610a68565b005b3480156102f957600080fd5b50610314600480360381019061030f9190612072565b610f2b565b005b34801561032257600080fd5b5061032b610faf565b60405161033891906121c1565b60405180910390f35b34801561034d57600080fd5b50610356610fc6565b60405161036391906121a6565b60405180910390f35b34801561037857600080fd5b506103816110bc565b60405161038e919061220c565b60405180910390f35b3480156103a357600080fd5b506103be60048036038101906103b991906120bf565b6110e4565b6040516103cc9291906121dc565b60405180910390f35b3480156103e157600080fd5b506103ea611180565b6040516103f7919061220c565b60405180910390f35b610408611188565b005b61041261132e565b005b34801561042057600080fd5b506104296117d6565b60405161043691906121a6565b60405180910390f35b34801561044b57600080fd5b506104546117fe565b604051610461919061220c565b60405180910390f35b34801561047657600080fd5b5061047f611826565b005b34801561048d57600080fd5b506104966118fc565b6040516104a3919061220c565b60405180910390f35b3480156104b857600080fd5b506104c161194d565b6040516104ce919061220c565b60405180910390f35b3480156104e357600080fd5b506104ec611975565b6040516104f9919061220c565b60405180910390f35b34801561050e57600080fd5b506105176119f5565b604051610524919061220c565b60405180910390f35b34801561053957600080fd5b50610542611a59565b60405161054f91906121c1565b60405180910390f35b34801561056457600080fd5b5061056d611af0565b60405161057a919061220c565b60405180910390f35b34801561058f57600080fd5b50610598611b18565b6040516105a5919061220c565b60405180910390f35b3480156105ba57600080fd5b506105c3611b23565b6040516105d0919061220c565b60405180910390f35b3480156105e557600080fd5b506105ee611b4b565b6040516105fb91906121c1565b60405180910390f35b34801561061057600080fd5b50610619611b5e565b604051610626919061220c565b60405180910390f35b34801561063b57600080fd5b50610644611b63565b005b34801561065257600080fd5b5061065b611ddf565b604051610668919061220c565b60405180910390f35b34801561067d57600080fd5b50610686611eab565b604051610693919061220c565b60405180910390f35b3480156106a857600080fd5b506106b1611eb5565b6040516106be91906121c1565b60405180910390f35b60007f0000000000000000000000000000000000000000000000000000000000000000426106f5919061235a565b905090565b6000600660009054906101000a900460ff1615610743576040517ffa51231700000000000000000000000000000000000000000000000000000000815260040160405180910390fd5b60055442610751919061235a565b905090565b60007f0000000000000000000000000000000000000000000000000000000000000000905090565b6000600354905090565b600660009054906101000a900460ff16156107cf576040517ffa51231700000000000000000000000000000000000000000000000000000000815260040160405180910390fd5b600260009054906101000a900473ffffffffffffffffffffffffffffffffffffffff1673ffffffffffffffffffffffffffffffffffffffff163373ffffffffffffffffffffffffffffffffffffffff1614610856576040517fb1afd9c400000000000000000000000000000000000000000000000000000000815260040160405180910390fd5b60007f000000000000000000000000000000000000000000000000000000000000000073ffffffffffffffffffffffffffffffffffffffff167f00000000000000000000000000000000000000000000000000000000000000006003546108bd9190612304565b6040516108c990612191565b60006040518083038185875af1925050503d8060008114610906576040519150601f19603f3d011682016040523d82523d6000602084013e61090b565b606091505b5050905080610946576040517fc045263a00000000000000000000000000000000000000000000000000000000815260040160405180910390fd5b600260009054906101000a900473ffffffffffffffffffffffffffffffffffffffff1673ffffffffffffffffffffffffffffffffffffffff167f00000000000000000000000000000000000000000000000000000000000000006040516109ac90612191565b60006040518083038185875af1925050503d80600081146109e9576040519150601f19603f3d011682016040523d82523d6000602084013e6109ee565b606091505b50508091505080610a2b576040517fc045263a00000000000000000000000000000000000000000000000000000000815260040160405180910390fd5b610a33611f93565b50565b600080610a416106c7565b1015610a6057610a4f6106c7565b6000610a5b919061235a565b610a63565b60005b905090565b7f000000000000000000000000000000000000000000000000000000000000000073ffffffffffffffffffffffffffffffffffffffff163373ffffffffffffffffffffffffffffffffffffffff1614610aed576040517f96fedc8700000000000000000000000000000000000000000000000000000000815260040160405180910390fd5b600660009054906101000a900460ff16610b33576040517f26c3c0d600000000000000000000000000000000000000000000000000000000815260040160405180910390fd5b610b3b611a59565b610b8357610b47610a36565b6040517fc857ff67000000000000000000000000000000000000000000000000000000008152600401610b7a919061220c565b60405180910390fd5b60006003541415610c7b5760007f000000000000000000000000000000000000000000000000000000000000000073ffffffffffffffffffffffffffffffffffffffff167f0000000000000000000000000000000000000000000000000000000000000000604051610bf490612191565b60006040518083038185875af1925050503d8060008114610c31576040519150601f19603f3d011682016040523d82523d6000602084013e610c36565b606091505b5050905080610c71576040517fc045263a00000000000000000000000000000000000000000000000000000000815260040160405180910390fd5b610c79611f93565b505b6000600660006101000a81548160ff0219169083151502179055504260058190555060006001805480602002602001604051908101604052809291908181526020018280548015610d2157602002820191906000526020600020905b8160009054906101000a900473ffffffffffffffffffffffffffffffffffffffff1673ffffffffffffffffffffffffffffffffffffffff1681526020019060010190808311610cd7575b5050505050905060005b8151811015610f27576000828281518110610d4957610d486124c1565b5b6020026020010151905060008060008373ffffffffffffffffffffffffffffffffffffffff1673ffffffffffffffffffffffffffffffffffffffff1681526020019081526020016000205490506000811480610df25750600260009054906101000a900473ffffffffffffffffffffffffffffffffffffffff1673ffffffffffffffffffffffffffffffffffffffff168273ffffffffffffffffffffffffffffffffffffffff16145b15610dfe575050610f14565b60008060008473ffffffffffffffffffffffffffffffffffffffff1673ffffffffffffffffffffffffffffffffffffffff1681526020019081526020016000208190555060008273ffffffffffffffffffffffffffffffffffffffff167f000000000000000000000000000000000000000000000000000000000000000083610e879190612304565b604051610e9390612191565b60006040518083038185875af1925050503d8060008114610ed0576040519150601f19603f3d011682016040523d82523d6000602084013e610ed5565b606091505b5050905080610f10576040517fc045263a00000000000000000000000000000000000000000000000000000000815260040160405180910390fd5b5050505b8080610f1f90612449565b915050610d2b565b5050565b6000610f45604051806020016040528060008152506110e4565b50905080610f7f576040517fda439dd200000000000000000000000000000000000000000000000000000000815260040160405180910390fd5b600660009054906101000a900460ff1615610fa157610f9c610a68565b610faa565b610fa9611f93565b5b505050565b6000600660009054906101000a900460ff16905090565b6000600660009054906101000a900460ff161561100f576040517ffa51231700000000000000000000000000000000000000000000000000000000815260040160405180910390fd5b7f000000000000000000000000000000000000000000000000000000000000000073ffffffffffffffffffffffffffffffffffffffff163373ffffffffffffffffffffffffffffffffffffffff1614611094576040517f96fedc8700000000000000000000000000000000000000000000000000000000815260040160405180910390fd5b600260009054906101000a900473ffffffffffffffffffffffffffffffffffffffff16905090565b60007f0000000000000000000000000000000000000000000000000000000000000000905090565b60006060600660009054906101000a900460ff161561112f577f00000000000000000000000000000000000000000000000000000000000000006111266106c7565b10159150611140565b62093a8061113b6106fa565b101591505b816040518060400160405280600381526020017f307830000000000000000000000000000000000000000000000000000000000081525091509150915091565b600047905090565b600660009054906101000a900460ff166111ce576040517f26c3c0d600000000000000000000000000000000000000000000000000000000815260040160405180910390fd5b60008060003373ffffffffffffffffffffffffffffffffffffffff1673ffffffffffffffffffffffffffffffffffffffff168152602001908152602001600020549050600081141561124c576040517f7afac2fc00000000000000000000000000000000000000000000000000000000815260040160405180910390fd5b6000341415611287576040517fcf2bd29b00000000000000000000000000000000000000000000000000000000815260040160405180910390fd5b34816112939190612304565b9050806000803373ffffffffffffffffffffffffffffffffffffffff1673ffffffffffffffffffffffffffffffffffffffff1681526020019081526020016000208190555060035481111561132b578060038190555033600260006101000a81548173ffffffffffffffffffffffffffffffffffffffff021916908373ffffffffffffffffffffffffffffffffffffffff1602179055505b50565b7f000000000000000000000000000000000000000000000000000000000000000073ffffffffffffffffffffffffffffffffffffffff163373ffffffffffffffffffffffffffffffffffffffff1614156113b4576040517fb132e98e00000000000000000000000000000000000000000000000000000000815260040160405180910390fd5b600660009054906101000a900460ff166113fa576040517f26c3c0d600000000000000000000000000000000000000000000000000000000815260040160405180910390fd5b60008060003373ffffffffffffffffffffffffffffffffffffffff1673ffffffffffffffffffffffffffffffffffffffff168152602001908152602001600020541115611473576040517f8a4a871f00000000000000000000000000000000000000000000000000000000815260040160405180910390fd5b7f000000000000000000000000000000000000000000000000000000000000000060045414156114fa577f00000000000000000000000000000000000000000000000000000000000000006040517fc19c4d410000000000000000000000000000000000000000000000000000000081526004016114f1919061220c565b60405180910390fd5b7f000000000000000000000000000000000000000000000000000000000000000034101561158157347f00000000000000000000000000000000000000000000000000000000000000006040517f05e01adf000000000000000000000000000000000000000000000000000000008152600401611578929190612227565b60405180910390fd5b60007f0000000000000000000000000000000000000000000000000000000000000000346115af919061235a565b9050600081141561161957347f00000000000000000000000000000000000000000000000000000000000000006040517ffc179f00000000000000000000000000000000000000000000000000000000008152600401611610929190612227565b60405180910390fd5b7f00000000000000000000000000000000000000000000000000000000000000008110156116c257347f00000000000000000000000000000000000000000000000000000000000000007f00000000000000000000000000000000000000000000000000000000000000006040517fad5f597d0000000000000000000000000000000000000000000000000000000081526004016116b993929190612250565b60405180910390fd5b806000803373ffffffffffffffffffffffffffffffffffffffff1673ffffffffffffffffffffffffffffffffffffffff16815260200190815260200160002081905550600354811115611758578060038190555033600260006101000a81548173ffffffffffffffffffffffffffffffffffffffff021916908373ffffffffffffffffffffffffffffffffffffffff1602179055505b6004600081548092919061176b90612449565b91905055506001339080600181540180825580915050600190039060005260206000200160009091909190916101000a81548173ffffffffffffffffffffffffffffffffffffffff021916908373ffffffffffffffffffffffffffffffffffffffff16021790555050565b60007f0000000000000000000000000000000000000000000000000000000000000000905090565b60007f0000000000000000000000000000000000000000000000000000000000000000905090565b600660009054906101000a900460ff161561186d576040517ffa51231700000000000000000000000000000000000000000000000000000000815260040160405180910390fd5b7f000000000000000000000000000000000000000000000000000000000000000073ffffffffffffffffffffffffffffffffffffffff163373ffffffffffffffffffffffffffffffffffffffff16146118f2576040517f96fedc8700000000000000000000000000000000000000000000000000000000815260040160405180910390fd5b6118fa611f93565b565b6000600660009054906101000a900460ff1615611945576040517ffa51231700000000000000000000000000000000000000000000000000000000815260040160405180910390fd5b600554905090565b60007f0000000000000000000000000000000000000000000000000000000000000000905090565b6000600660009054906101000a900460ff166119bd576040517f26c3c0d600000000000000000000000000000000000000000000000000000000815260040160405180910390fd5b6119c56106c7565b7f00000000000000000000000000000000000000000000000000000000000000006119f0919061235a565b905090565b6000600660009054906101000a900460ff1615611a3e576040517ffa51231700000000000000000000000000000000000000000000000000000000815260040160405180910390fd5b611a466106fa565b62093a80611a54919061235a565b905090565b60007f000000000000000000000000000000000000000000000000000000000000000073ffffffffffffffffffffffffffffffffffffffff163373ffffffffffffffffffffffffffffffffffffffff1614611ae0576040517f96fedc8700000000000000000000000000000000000000000000000000000000815260040160405180910390fd5b6000611aea610a36565b14905090565b60007f0000000000000000000000000000000000000000000000000000000000000000905090565b600062093a80905090565b60007f0000000000000000000000000000000000000000000000000000000000000000905090565b600660009054906101000a900460ff1681565b600090565b600660009054906101000a900460ff16611ba9576040517f26c3c0d600000000000000000000000000000000000000000000000000000000815260040160405180910390fd5b600260009054906101000a900473ffffffffffffffffffffffffffffffffffffffff1673ffffffffffffffffffffffffffffffffffffffff163373ffffffffffffffffffffffffffffffffffffffff161415611c31576040517f84de89da00000000000000000000000000000000000000000000000000000000815260040160405180910390fd5b60008060003373ffffffffffffffffffffffffffffffffffffffff1673ffffffffffffffffffffffffffffffffffffffff1681526020019081526020016000205490506000811415611caf576040517f7afac2fc00000000000000000000000000000000000000000000000000000000815260040160405180910390fd5b60008060003373ffffffffffffffffffffffffffffffffffffffff1673ffffffffffffffffffffffffffffffffffffffff16815260200190815260200160002081905550600160046000828254611d06919061235a565b9250508190555060003373ffffffffffffffffffffffffffffffffffffffff167f000000000000000000000000000000000000000000000000000000000000000083611d529190612304565b604051611d5e90612191565b60006040518083038185875af1925050503d8060008114611d9b576040519150601f19603f3d011682016040523d82523d6000602084013e611da0565b606091505b5050905080611ddb576040517fc045263a00000000000000000000000000000000000000000000000000000000815260040160405180910390fd5b5050565b60007f000000000000000000000000000000000000000000000000000000000000000073ffffffffffffffffffffffffffffffffffffffff163373ffffffffffffffffffffffffffffffffffffffff161415611e67576040517fb132e98e00000000000000000000000000000000000000000000000000000000815260040160405180910390fd5b6000803373ffffffffffffffffffffffffffffffffffffffff1673ffffffffffffffffffffffffffffffffffffffff16815260200190815260200160002054905090565b6000600454905090565b60007f000000000000000000000000000000000000000000000000000000000000000073ffffffffffffffffffffffffffffffffffffffff163373ffffffffffffffffffffffffffffffffffffffff161415611f3d576040517fb132e98e00000000000000000000000000000000000000000000000000000000815260040160405180910390fd5b600260009054906101000a900473ffffffffffffffffffffffffffffffffffffffff1673ffffffffffffffffffffffffffffffffffffffff163373ffffffffffffffffffffffffffffffffffffffff1614905090565b3073ffffffffffffffffffffffffffffffffffffffff16ff5b6000611fbf611fba846122ac565b612287565b905082815260208101848484011115611fdb57611fda61252e565b5b611fe68482856123d6565b509392505050565b60008083601f84011261200457612003612524565b5b8235905067ffffffffffffffff8111156120215761202061251f565b5b60208301915083600182028301111561203d5761203c612529565b5b9250929050565b600082601f83011261205957612058612524565b5b8135612069848260208601611fac565b91505092915050565b6000806020838503121561208957612088612538565b5b600083013567ffffffffffffffff8111156120a7576120a6612533565b5b6120b385828601611fee565b92509250509250929050565b6000602082840312156120d5576120d4612538565b5b600082013567ffffffffffffffff8111156120f3576120f2612533565b5b6120ff84828501612044565b91505092915050565b6121118161238e565b82525050565b612120816123a0565b82525050565b6000612131826122dd565b61213b81856122e8565b935061214b8185602086016123e5565b6121548161253d565b840191505092915050565b600061216c6000836122f9565b91506121778261254e565b600082019050919050565b61218b816123cc565b82525050565b600061219c8261215f565b9150819050919050565b60006020820190506121bb6000830184612108565b92915050565b60006020820190506121d66000830184612117565b92915050565b60006040820190506121f16000830185612117565b81810360208301526122038184612126565b90509392505050565b60006020820190506122216000830184612182565b92915050565b600060408201905061223c6000830185612182565b6122496020830184612182565b9392505050565b60006060820190506122656000830186612182565b6122726020830185612182565b61227f6040830184612182565b949350505050565b60006122916122a2565b905061229d8282612418565b919050565b6000604051905090565b600067ffffffffffffffff8211156122c7576122c66124f0565b5b6122d08261253d565b9050602081019050919050565b600081519050919050565b600082825260208201905092915050565b600081905092915050565b600061230f826123cc565b915061231a836123cc565b9250827fffffffffffffffffffffffffffffffffffffffffffffffffffffffffffffffff0382111561234f5761234e612492565b5b828201905092915050565b6000612365826123cc565b9150612370836123cc565b92508282101561238357612382612492565b5b828203905092915050565b6000612399826123ac565b9050919050565b60008115159050919050565b600073ffffffffffffffffffffffffffffffffffffffff82169050919050565b6000819050919050565b82818337600083830152505050565b60005b838110156124035780820151818401526020810190506123e8565b83811115612412576000848401525b50505050565b6124218261253d565b810181811067ffffffffffffffff821117156124405761243f6124f0565b5b80604052505050565b6000612454826123cc565b91507fffffffffffffffffffffffffffffffffffffffffffffffffffffffffffffffff82141561248757612486612492565b5b600182019050919050565b7f4e487b7100000000000000000000000000000000000000000000000000000000600052601160045260246000fd5b7f4e487b7100000000000000000000000000000000000000000000000000000000600052603260045260246000fd5b7f4e487b7100000000000000000000000000000000000000000000000000000000600052604160045260246000fd5b600080fd5b600080fd5b600080fd5b600080fd5b600080fd5b600080fd5b6000601f19601f8301169050919050565b5056fea2646970667358221220964f85886221927d9f4163c67f37f5e43b43368cae0ed7087247a6baf0d8149c64736f6c63430008070033",
  "devdoc": {
    "kind": "dev",
    "methods": {},
    "version": 1
  },
  "userdoc": {
    "kind": "user",
    "methods": {},
    "version": 1
  },
  "storageLayout": {
    "storage": [
      {
        "astId": 128,
        "contract": "contracts/Auction.sol:Auction",
        "label": "s_auctioneerToCurrentBid",
        "offset": 0,
        "slot": "0",
        "type": "t_mapping(t_address,t_uint256)"
      },
      {
        "astId": 131,
        "contract": "contracts/Auction.sol:Auction",
        "label": "s_auctioneers",
        "offset": 0,
        "slot": "1",
        "type": "t_array(t_address)dyn_storage"
      },
      {
        "astId": 133,
        "contract": "contracts/Auction.sol:Auction",
        "label": "s_currentHighestBidder",
        "offset": 0,
        "slot": "2",
        "type": "t_address"
      },
      {
        "astId": 135,
        "contract": "contracts/Auction.sol:Auction",
        "label": "s_currentHighestBid",
        "offset": 0,
        "slot": "3",
        "type": "t_uint256"
      },
      {
        "astId": 137,
        "contract": "contracts/Auction.sol:Auction",
        "label": "s_currentNumberOfBidders",
        "offset": 0,
        "slot": "4",
        "type": "t_uint256"
      },
      {
        "astId": 139,
        "contract": "contracts/Auction.sol:Auction",
        "label": "s_closeTimestamp",
        "offset": 0,
        "slot": "5",
        "type": "t_uint256"
      },
      {
        "astId": 141,
        "contract": "contracts/Auction.sol:Auction",
        "label": "s_isOpen",
        "offset": 0,
        "slot": "6",
        "type": "t_bool"
      }
    ],
    "types": {
      "t_address": {
        "encoding": "inplace",
        "label": "address",
        "numberOfBytes": "20"
      },
      "t_array(t_address)dyn_storage": {
        "base": "t_address",
        "encoding": "dynamic_array",
        "label": "address[]",
        "numberOfBytes": "32"
      },
      "t_bool": {
        "encoding": "inplace",
        "label": "bool",
        "numberOfBytes": "1"
      },
      "t_mapping(t_address,t_uint256)": {
        "encoding": "mapping",
        "key": "t_address",
        "label": "mapping(address => uint256)",
        "numberOfBytes": "32",
        "value": "t_uint256"
      },
      "t_uint256": {
        "encoding": "inplace",
        "label": "uint256",
        "numberOfBytes": "32"
      }
    }
  }
}